:100000000C9499000C94E0010C94B6000C94B6008A
:100010000C94B6000C94B6000C94B6000C94B60088
:100020000C94B6000C94B6000C94B6000C94B60078
:100030000C94B6000C94B6000C94B6000C94B60068
:100040000C94B6000C94B6000C94B6000C94B60058
:100050000C94B60009022200010100800F0904007F
:1000600000010300000009210101000122770007BF
:1000700005810308000A1201100100000008C016E3
:10008000DC0500040102000114037600690064002D
:1000900065006F0062006100730073001A0377004F
:1000A000770077002E0061006E0079006D0061001E
:1000B0002E00630068000403090405010908A1017A
:1000C0000936093609360936150026FF03751095DD
:1000D0000481220930093009300930150026FF005B
:1000E000750895048102093109310931093115007A
:1000F00026FF007508950481020937093709370979
:10010000370937150026FF0035FF450175089505AD
:100110008102093809380938093815FF25017502A7
:1001200095048106050919012908750195088102C0
:10013000C00011241FBECFE5D4E0DEBFCDBF10E06C
:10014000A0E6B0E0E2E2FBE002C005900D92A4362A
:10015000B107D9F710E0A4E6B0E001C01D92AE3DB2
:10016000B107E1F70E940B050C9490050C94000078
:10017000CF93C62FDC018091B30084FF07C080912C
:10018000B40098E889278093B40003C08AE580937F
:10019000B300E5EBF0E09C2F8D91819391501916FF
:1001A000DCF36C2F85EB90E00E94DC01CC5FC09308
:1001B000B300CF910895CF93DF939091C4009350F3
:1001C00097FD88C08091C100C4EDD0E0C81BD10963
:1001D0008091C0008D3209F07BC0983009F078C062
:1001E00083EC8093A8008AE58093600010926400FD
:1001F0008881807629F0CE010E94DB03282F5FC022
:10020000282F41EB50E09A818093B10089818823A7
:1002100021F42093B20022E04EC0853019F490936F
:10022000C50049C08630A1F58B81813021F422E1DF
:1002300086E790E025C0823021F422E284E590E058
:100240001FC0833091F4992321F424E086EB90E0E1
:1002500017C0913021F42AE18CE990E011C092306E
:1002600099F424E188E890E00BC0813221F429E080
:1002700086E690E005C0823239F427E78AEB90E009
:100280009093C3008093C20080E48093640017C001
:10029000883019F447EC50E007C0893019F4909386
:1002A000C70009C08A3011F421E005C08B3019F471
:1002B0008BE48093B4005093C3004093C2008F81BD
:1002C000882321F48E81821708F4282F209361005F
:1002D0001092C4008091600084FF3FC08091610053
:1002E0008F3F09F43AC0682F893008F068E0861B18
:1002F000809361008091A80098E889278093A800E6
:10030000A9EAB0E06623B9F0962FE091C200F0911F
:10031000C3008091640086FF06C084918D9331965E
:100320009150D9F704C081918D939150E1F7F093EA
:10033000C300E093C2007727C62F693040F489EAF2
:1003400090E00E94DC01CC5FCC3028F401C0CEE10B
:100350008FEF80936100C093600094E180B383705D
:1003600031F49150D9F79093C5009093BF00DF917D
:10037000CF91089585B7826085BF8BB780648BBFAE
:100380008BE48093B4008AE58093B3000895A82F8E
:10039000B92F80E090E041E050EA60956F5F58F43B
:1003A0002D9138EF82279795879510F08427952710
:1003B0003F5FC8F3F3CF0895EADF8D939D930895CF
:1003C000CF93CFB7CF93C395809BE9F7809B09C0AC
:1003D000809B07C0809B05C0809B03C0809B01C0A1
:1003E000A3C0DF93C091C100DD27C853DF4F809BBE
:1003F00002C0DF91EBCF2F930F931F9300B32FEF2A
:1004000000FB20F94F933F9310B34FEF012700FB00
:1004100021F93BE031C04E7F012F10B3216028C08D
:10042000102F4D7F2260000000B329C04B7F246055
:10043000012F000010B32BC010B3477F28602AC0E3
:100440004F7E00B320612CC04F7D10B320622FC0BF
:100450004F7B00B3206432C0422700B349934FEF73
:100460000000102710FB20F910B31370C9F1297F89
:1004700091F2012700FB21F900B3237F89F231506B
:1004800058F1102710FB22F910B3277E79F20127CB
:1004900000FB23F92F7C81F200B3102710FB24F915
:1004A0002F7971F200C010B3012700FB25F92F73DB
:1004B00059F200C000B3102710FB26F9223040F299
:1004C00000C010B3012700FB27F9243028F64F772E
:1004D000206810B30000F9CF10E41ABF002719C03C
:1004E0003B503195C31BD04010E41ABF0881033C38
:1004F000F9F00B34E9F02091BF001981110F1213AC
:10050000EDCF4A81441F093641F10D3211F0013E11
:1005100029F70093C6003F914F911F910F912F91A2
:10052000DF91CAB7C6FD4FCFCF91CFBFCF911895FE
:100530002091C600222379F31091C400112369F59C
:1005400034306AF13093C4002093C0001091C10090
:100550003BE0311B3093C10022C00091C400013048
:10056000E4F40AE54F7049F43091600034FD19C09D
:1005700000936000C8EAD0E018C03091B30034FDA9
:1005800010C00093B300C4EBD0E00FC02795A8F4CF
:100590005150A9F4220F0000F9CF4AE503C042ED03
:1005A00001C0432FC4E1D0E032E011B31360909A50
:1005B00011BB02B320E413E05F93012756E002BBB6
:1005C000279520F4515021F4220FF9CF012756E04E
:1005D00000003B5A02BBD0F2279528F4515029F471
:1005E000220F0000F9CF012756E0279502BB20F427
:1005F000515021F4220FF9CF012756E029913323DE
:1006000002BB21F60C7F1091C500110FC651D040DE
:1006100002BB11F01093BF0010E41ABF016011B3C8
:100620001C7F402F4C7F5F9100C000C002BB11BBFC
:1006300042BB71CF21E030E002C0220F331F8A9508
:10064000E2F7922F909582B3892382BB089521E02F
:1006500030E002C0220F331F8A95E2F782B3822B6B
:1006600082BB089521E030E002C0220F331F8A953B
:10067000E2F782B3822782BB08950895379A3598AE
:1006800086B1887F866086B93E9A3F9835983398C0
:10069000089586B1992726E0969587952A95E1F7E2
:1006A0008095909581709070089584B1282F33279C
:1006B00085B19927982F8827822B932B08950E9424
:1006C00055039595879595958795089597B1907E53
:1006D0008F71982B97B90895349A369A089584B7F4
:1006E0008E7F84BFF89488E10FB6F89481BD11BC69
:1006F0000FBE9FE781B3892381BB82B3892382BB6D
:1007000086B1877786B985E090E00E94270386E06E
:1007100090E00E942703E0916200F0916300099548
:100720000895FC018181883F11F40E946F0380E0ED
:1007300090E0089588E190E02EE00FB6F894A89537
:1007400081BD0FBE21BD80EE81BB80E782BB0E94D0
:10075000BA018F9897982FEFA89588EB9BE00197A7
:10076000F1F72150C9F78F9A979A78947894089561
:10077000FC0160E070E09B01A1E0B0E047E050E0E8
:10078000CF01022E02C0959587950A94E2F780FF6B
:1007900009C0CD01042E02C0880F991F0A94E2F708
:1007A000682B792B2F5F3F4F415050402830310547
:1007B0003CF3CB010895FC018081992780769070ED
:1007C0008032910521F08034910569F01BC0818150
:1007D0008130C1F48EE890E09093C3008093C20012
:1007E00087E190E008958181873039F482818031FA
:1007F00008F08FE080938A0005C0CF010E9491032A
:100800009927089580E090E00895C79A88EE93E0D4
:1008100007972FEF8F3F9207D9F7C79888EE93E09D
:1008200007972FEF8F3F9207D9F7C49A88EE93E08E
:1008300007972FEF8F3F9207D9F78FEF8FB9779BED
:10084000FECF8FB182958F70482F552789B3992796
:10085000807C9070482B592B8FEF8FB9779BFECF00
:100860008FB19927982F8827482B592BC4988091AE
:100870008C0090918D004817590791F0252F332750
:10088000CA01892F99278695822B8093A3004093D4
:10089000A40081E08093650050938D0040938C000C
:1008A0000895EF92FF920F931F93CF93DF93809160
:1008B0008B008F3F51F08A3010F48F5F03C00E948D
:1008C0006C038FEF80938B009FC00E944903892B9C
:1008D00009F49AC00E94550300916600C02FDD27DD
:1008E00010916700E12EFF24FE01EE0DFF1DEE0FBB
:1008F000FF1FE859FF4F20918A0033274081518123
:10090000429FB001439F700D529F700D11242F5FC5
:100910003F4F860F971FB9010E946905718360835D
:10092000043008F5FE01EC0FFD1FDF01A257BF4F99
:100930004D915C911197E859FF4F208131812D93A2
:100940003C938091650099272417350709F0816051
:1009500080936500CE01019665E070E00E947D0500
:10096000809366004BC0183070F4412F469510FFFD
:1009700005C0A42FBB27A656BF4F0EC0A42FBB2770
:10098000AA56BF4F09C01C3028F4A9EAB0E0AE193E
:10099000BF0902C0A2EAB0E04C91802F810F912DD7
:1009A000911DFC01E80FF91FE859FF4F80819181EB
:1009B00096958795969587958C9320916500622FE3
:1009C0007727282F3327842F992787FD909528177D
:1009D000390709F06160609365008091670099278D
:1009E00001966DE070E00E947D058093670088BBF2
:1009F000882321F4809366000E940504809166009C
:100A00000E94660310928B00DF91CF911F910F918E
:100A1000FF90EF900895CFE5D4E0DEBFCDBF1ABAC6
:100A20001BBADF9A0E943E038FEB87BB82E58DB92C
:100A300018BA8FEF84BB85BB0E949A0386E090E0D2
:100A40000E941A03A8950E943D030E94DB000E94A9
:100A5000510480916500882389F08091A5009091D0
:100A6000A600892B59F48EE890E09093A60080931D
:100A7000A50087E18093A700109265008091A500F2
:100A80009091A600892BF1F28091B30084FFDACF18
:100A90006091A70068300CF068E08091A50090910B
:100AA000A6000E94B8008091A70088508093A700FC
:100AB00018162CF01092A6001092A500C3CF8091BA
:100AC000A5009091A60008969093A6008093A5009B
:100AD000B9CFAA1BBB1B51E107C0AA1FBB1FA6179A
:100AE000B70710F0A61BB70B881F991F5A95A9F7D7
:100AF00080959095BC01CD01089597FB092E07269E
:100B00000AD077FD04D0E5DF06D000201AF47095F6
:100B100061957F4F0895F6F7909581959F4F0895C1
:020B2000FFCF05
:040B22005AFF001C5A
:00000001FF
